:100000000C9464000C948C000C948C000C948C0068
:100010000C948C000C948C000C948C000C948C0030
:100020000C948C000C948C000C948C000C948C0020
:100030000C948C000C948C000C948C000C948C0010
:100040000C94450A0C948C000C94E0020C942E0342
:100050000C948C000C948C000C948C000C948C00F0
:100060000C948C000C948C000000000024002700ED
:100070002A0000000000250028002B0000000000DE
:1000800023002600290004040404040404040202DA
:100090000202020203030303030301020408102007
:1000A0004080010204081020010204081020000012
:1000B0000007000201000003040600000000000029
:1000C000000005019A04FE0011241FBECFEFD8E006
:1000D000DEBFCDBF11E0A0E0B1E0EAEFF5E102C084
:1000E00005900D92AE33B107D9F712E0AEE3B1E05F
:1000F00001C01D92AA30B107E1F710E0C6ECD0E0D4
:1001000004C02297FE010E94EC0AC23CD107C9F745
:100110000E94F0040C94F00A0C940000FB01DC0136
:1001200002C001900D9241505040D8F708956817D1
:10013000790768F4FB01DC01E40FF51FA40FB51F7C
:1001400002C002900E9241505040D8F708950C948E
:100150008E00FB01DC018D91019080190110D9F313
:10016000990B0895FB01DC0101900D920020E1F74D
:100170000895FB0151915523A9F0BF01DC014D9178
:1001800045174111E1F759F4CD010190002049F0E4
:100190004D9140154111C9F3FB014111EFCF81E0B1
:1001A00090E00197089581309105B1F46F5F7F4F22
:1001B00021F58EE391E060E071E00E94DF0785E4C5
:1001C00091E060E071E00E94DF078CE491E060E084
:1001D00071E00E94DF070895892B79F46F5F7F4FEC
:1001E00061F48CE491E00E94290885E491E00E948A
:1001F00029088EE391E00E942908089580E090E0AC
:100200006FEF7FEF0E94D300089581E090E06FEFE1
:100210007FEF0E94D30008958AE061E00E948B0284
:100220008BE061E00E948B0208958AE061E00E9409
:100230008B028BE060E00E948B0208958AE060E010
:100240000E948B028BE061E00E948B0208958AE09D
:1002500060E00E948B028BE061E00E948B020895B7
:100260008AE060E00E948B028BE061E00E948B02DA
:1002700008958AE061E00E948B028BE060E00E94BA
:100280008B0208958AE061E00E948B028BE060E0BF
:100290000E948B02089585E491E061E071E00E9484
:1002A0000E06882319F00E944201089585E491E02A
:1002B00063E071E00E940E06882319F00E94390164
:1002C000089585E491E065E071E00E940E068823C0
:1002D00019F00E943001089585E491E067E071E033
:1002E0000E940E06882319F00E942701089585E4D4
:1002F00091E069E071E00E940E06882319F00E94E7
:100300001E01089585E491E06BE071E00E940E0605
:10031000882319F00E941501089585E491E06DE0AD
:1003200071E00E940E060E940C010895EF92FF9268
:100330000F931F93DF93CF93CDB7DEB76C970FB6B4
:10034000F894DEBF0FBECDBF8BED91E00E94F003AD
:100350001816190654F48BED91E00E942104082F21
:100360008EE391E0602F0E9499070E3729F10C323D
:1003700051F57E010894E11CF11CC7016FE071E0AA
:100380000E94DF078E01085F1F4FC80160E071E027
:100390000E94DF078EE391E0B701A8010E944B069F
:1003A000C8010E942908C7010E94290885E491E03C
:1003B0006EE371E00E9412088EE391E060E071E06C
:1003C0000E94F90747C00E3509F044C08FE0E82EBF
:1003D000F12CEC0EFD1EC70161E171E00E94DF0708
:1003E0008E010A5E1F4FC80160E071E00E94DF07C6
:1003F0008EE391E0B701A8010E944B06C8010E945C
:100400002908C7010E9429088CE491E06EE371E09D
:100410000E9412088EE391E060E071E00E94F9070B
:100420008BED91E063E171E00E9465058BED91E059
:1004300065E471E00E949B058BED91E06CE171E059
:100440000E9465058BED91E06CE471E00E949B05D4
:100450000E944B016C960FB6F894DEBF0FBECDBF65
:10046000CF91DF911F910F91FF90EF9008958BED49
:1004700091E040E855E260E070E00E94690389E0A5
:1004800061E00E944C028AE061E00E944C028BE035
:1004900061E00E944C020895CF93DF93482F50E013
:1004A000CA0186569F4FFC0134914A575F4FFA01AB
:1004B0008491882369F190E0880F991FFC01E85925
:1004C000FF4FA591B491FC01EE58FF4FC591D49117
:1004D000662351F42FB7F8948C91932F909589232C
:1004E0008C93888189230BC0623061F42FB7F89414
:1004F0008C91932F909589238C938881832B88836B
:100500002FBF06C09FB7F8948C91832B8C939FBF0D
:10051000DF91CF910895482F50E0CA0182559F4F37
:10052000FC012491CA0186569F4FFC0194914A57C1
:100530005F4FFA013491332309F440C0222351F173
:10054000233071F0243028F42130A1F0223011F54D
:1005500014C02630B1F02730C1F02430D9F404C0E3
:10056000809180008F7703C0809180008F7D809381
:10057000800010C084B58F7702C084B58F7D84BDA4
:1005800009C08091B0008F7703C08091B0008F7D4B
:100590008093B000E32FF0E0EE0FFF1FEE58FF4F07
:1005A000A591B4912FB7F894662321F48C9190957E
:1005B000892302C08C91892B8C932FBF08950895B5
:1005C0001F920F920FB60F9211242F933F934F93C8
:1005D0008F939F93EF93FF938091C00082FD1DC086
:1005E0004091C60020919301309194012F5F3F4FBD
:1005F0002F733070809195019091960128173907DB
:1006000071F0E0919301F0919401ED5AFE4F408317
:10061000309394012093930102C08091C600FF9112
:10062000EF919F918F914F913F912F910F900FBE1E
:100630000F901F901895E091E701F091E801E05CC0
:10064000FF4F8191919120813181821B930B8F7398
:100650009070892B11F00E94DF0208951F920F9273
:100660000FB60F9211242F933F938F939F93EF9385
:10067000FF932091D7013091D8018091D9019091B9
:10068000DA012817390731F48091C1008F7D8093FA
:10069000C10014C0E091D901F091DA01E956FE4F92
:1006A00020818091D9019091DA0101968F73907029
:1006B0009093DA018093D9012093C600FF91EF91C6
:1006C0009F918F913F912F910F900FBE0F901F9090
:1006D0001895AF92BF92DF92EF92FF920F931F9304
:1006E000CF93DF93EC017A018B01DD24403081EE62
:1006F000580780E0680780E0780711F0DD24D39484
:1007000091E0A92EB12CEC89FD89DD2069F0C501AD
:1007100008A002C0880F991F0A94E2F7808360E066
:1007200079E08DE390E005C0108260E874E88EE126
:1007300090E0A80197010E94C80A21503040404033
:100740005040569547953795279580E120303807DA
:1007500020F0DD2011F0DD24D6CFE889F98930833F
:10076000EA89FB89208319A2EE89FF89408121E073
:1007700030E0C9010C8C02C0880F991F0A94E2F77F
:10078000482B4083EE89FF894081C9010D8C02C04E
:10079000880F991F0A94E2F7482B4083EE89FF895E
:1007A0004081C9010E8C02C0880F991F0A94E2F79C
:1007B000482B4083EE89FF8980810F8C02C0220F75
:1007C000331F0A94E2F7209528232083DF91CF91ED
:1007D0001F910F91FF90EF90DF90BF90AF90089521
:1007E000DC011C96ED91FC911D97E05CFF4F21917F
:1007F000319180819181281B390B2F733070C90191
:100800000895DC011C96ED91FC911D97E05CFF4F73
:1008100020813181E054F040DF01AE5BBF4F8D910C
:100820009C9111972817390719F42FEF3FEF07C054
:100830008D919C91E80FF91F8081282F30E0C9012C
:100840000895DC011C96ED91FC911D97E05CFF4F33
:1008500020813181E054F040DF01AE5BBF4F8D91CC
:100860009C9111972817390719F42FEF3FEF10C00B
:100870008D919C911197E80FF91F20818D919C918A
:10088000119701968F73907011969C938E9330E020
:10089000C9010895DC0191968C919197882339F0D4
:1008A0005496ED91FC915597808186FFF9CF9196F2
:1008B0001C920895CF93DF93EC01EE85FF85E05CF9
:1008C000FF4F20813181E054F0402F5F3F4F2F7365
:1008D0003070DF01AE5BBF4F8D919C91119728174F
:1008E0003907D1F3E05CFF4F80819181E054F04003
:1008F000E80FF91F6083EE85FF85E05CFF4F3183D1
:100900002083EE89FF89208181E090E00F8C02C076
:10091000880F991F0A94E2F7282B208381E089A38E
:10092000EC89FD8980818064808381E090E0DF91A3
:10093000CF9108951092DE011092DD0188EE93E0D0
:10094000A0E0B0E08093DF019093E001A093E1018B
:10095000B093E20181E391E09093DC018093DB01AD
:1009600083E591E09093E8018093E70187E991E0C6
:100970009093EA018093E90185EC90E09093EC017B
:100980008093EB0184EC90E09093EE018093ED0175
:1009900080EC90E09093F0018093EF0181EC90E087
:1009A0009093F2018093F10182EC90E09093F40136
:1009B0008093F30186EC90E09093F6018093F5012B
:1009C00084E08093F70183E08093F80187E08093CF
:1009D000F90185E08093FA0181E08093FB0108959D
:1009E000CF93DF930E948D0A0E943702CBE1D3E0C0
:1009F0000E9496012097E1F30E941B03F9CFCF924A
:100A0000DF92EF92FF920F931F93CF93DF937C01BE
:100A10006B018A01C0E0D0E00FC0D6016D916D017D
:100A2000D701ED91FC910190F081E02DC70109956E
:100A3000C80FD91F015010400115110571F7CE01E3
:100A4000DF91CF911F910F91FF90EF90DF90CF90AA
:100A50000895EF92FF920F931F938C01DC01ED91AB
:100A6000FC910190F081E02D6DE009957C01D801A9
:100A7000ED91FC910190F081E02DC8016AE00995AB
:100A80009C012E0D3F1DC9011F910F91FF90EF900A
:100A90000895CF93DF93EC016115710519F420E0FF
:100AA00030E00FC0DB010D900020E9F71197A61B85
:100AB000B70BE881F9810280F381E02DAD01099542
:100AC0009C01C901DF91CF9108950E9449050895C5
:100AD000AF92BF92CF92DF92EF92FF920F931F934C
:100AE000CF93DF935C016B01EE24FF24C0E0D0E0E4
:100AF00010C0D501ED91FC9100811181C601BE01AC
:100B00000E94AF05682FC501F8010995E80EF91E8E
:100B10002196F60184819581C817D90750F3C70142
:100B2000DF91CF911F910F91FF90EF90DF90CF90C9
:100B3000BF90AF900895EF92FF920F931F937C01A7
:100B40000E9468058C01C7010E9429059C01200FA5
:100B5000311FC9011F910F91FF90EF900895FC0183
:100B6000848195816817790748F40190F081E02D20
:100B7000309721F0E60FF71F8081089580E00895F7
:100B8000AF92BF92CF92DF92EF92FF920F931F939B
:100B9000CF93DF93FC015B017A01DB0114962D9169
:100BA0003C9115972115310559F184819581009764
:100BB00039F18217930720F14817590720F07C017B
:100BC0000894E108F10800811181C801CFEFDFEF3F
:100BD0006801CE0CDF1C10C0F501608171810E949C
:100BE000B9009C01009771F0801B910BE816F90683
:100BF00008F0EC01C9010196C816D90668F702C0D1
:100C0000CFEFDFEFCE01DF91CF911F910F91FF90DA
:100C1000EF90DF90CF90BF90AF900895DC01FB0183
:100C200014968D919C911597892B31F4611571055E
:100C3000A9F090E0808108C00D90BC91A02D6115B5
:100C4000710529F490E08C91882349F407C0CD0107
:100C50000E94A9009C0190E0232B09F491E0892FC8
:100C600008950F931F93CF93DF93EC018B016F5F78
:100C70007F4F888199810E946409009711F480E078
:100C800005C0998388831B830A8381E0DF91CF911C
:100C90001F910F9108952F923F924F925F926F9202
:100CA0007F928F929F92AF92BF92CF92DF92EF92FC
:100CB000FF920F931F93CF93DF935C012B014A01A7
:100CC000DC0114960D911C9115970115110509F47D
:100CD000D4C0FB01C480D580C114D10409F4CDC0B7
:100CE000DA0114966D907C9015976C187D08FC01C4
:100CF000E080F1806114710491F01BC0D4016C910B
:100D000011967C91119714964D915C9115978C2FAB
:100D10000E948E00F401E480F580EC0EFD1ED201ED
:100D20006D917C91C7010E94B900EC01009731F7E9
:100D3000A4C077FE02C067012EC0FB012080318075
:100D4000E8013CC08E010E191F09C601B701A801B8
:100D50000E948E000C0D1D1DD4016C9111967C918A
:100D6000119714964D915C911597C8010E948E00C1
:100D7000F401C480D580C00ED11ED2011496ED902E
:100D8000FC901597EC0EFD1EF50184819581860D72
:100D9000971D95838483D2016D917C91C7010E9438
:100DA000B900EC01009771F6C601B7010E94B200CC
:100DB00064C07B01EC0CFD1CC60DD71DC701B10141
:100DC0000E94B900BC010097A1F7C017D10709F430
:100DD00054C0F501828193818C179D0708F044C0AF
:100DE000C501BE010E9431068823F1F546C0C50148
:100DF000B201A9010E94C005EC0197FD3EC0D501DA
:100E00006D917C911197F201848195818C0F9D1FCA
:100E1000680F791F14964D915C911597481B590BDB
:100E2000CB01860D971D0E949700D50114968D91D8
:100E30009C911597860D971D15969C938E931497EC
:100E4000ED91FC911197E80FF91F10822D913C91C3
:100E50002C0F3D1FF4016081718144815581C901CE
:100E60000E948E009E0105C0D50114962D913C91E3
:100E700015972150304037FFBACFDF91CF911F91A6
:100E80000F91FF90EF90DF90CF90BF90AF909F9029
:100E90008F907F906F905F904F903F902F9008952C
:100EA000CF93DF93EC0188819981892B29F08A8186
:100EB0009B818617970760F4CE010E943106882334
:100EC00041F08C819D81892B19F4E881F981108290
:100ED00081E0DF91CF910895EF92FF920F931F93DE
:100EE000CF93DF93EC017B016C817D81E114F104F0
:100EF000C1F04115510599F08A01060F171FB8017D
:100F00000E945007882369F0888199812C813D8156
:100F1000820F931FB7010E94B2001D830C8381E0F2
:100F200001C080E0DF91CF911F910F91FF90EF9072
:100F30000895DF93CF9300D0CDB7DEB769831A82CF
:100F4000BE016F5F7F4F41E050E00E946C070F9041
:100F50000F90CF91DF910895CF93DF93EC018881BB
:100F60009981009711F00E94CC08198218821D8285
:100F70001C821B821A82DF91CF910895EF92FF921B
:100F80000F931F93CF93DF93EC017B018A01BA018A
:100F90000E945007882321F4CE010E94AC0707C0AD
:100FA0001D830C8388819981B7010E94B200CE0114
:100FB000DF91CF911F910F91FF90EF900895CF9304
:100FC000DF93EC01198218821B821A821D821C8217
:100FD0001E826115710551F0DB010D900020E9F7CB
:100FE0001197A61BB70BAD010E94BE07DF91CF91F1
:100FF00008950F931F93182F092F6115710559F04C
:10100000DB010D900020E9F71197A61BB70BAD018E
:101010000E94BE0702C00E94AC07812F902F1F9133
:101020000F910895CF93DF93EC01FB01861797078B
:1010300061F0608171816115710529F044815581EC
:101040000E94BE0702C00E94AC07CE01DF91CF9183
:101050000895FC01808191810E94CC0808950F932E
:101060001F93CF93DF93BC018230910510F462E0AF
:1010700070E0E0910802F0910902A0E0B0E040E0E9
:1010800050E024C08081918186179707D0F08617A1
:10109000970771F482819381109729F013969C939E
:1010A0008E9312972CC0909309028093080227C058
:1010B0004115510519F08417950718F4EF018D01BA
:1010C000AC01DF01828193819C01F9013097D1F657
:1010D00041155105F9F0CA01861B970B8430910523
:1010E00080F48A819B810115110521F0F801938319
:1010F000828304C09093090280930802FE01329615
:1011000045C0FE01E80FF91F61937193029799831F
:1011100088833CC08091060290910702892B41F49C
:101120008091290190912A019093070280930602F1
:1011300040912B0150912C014115510541F44DB7BF
:101140005EB78091270190912801481B590B20918F
:1011500006023091070224173507B0F4CA01821B3A
:10116000930B8617970780F0AB014E5F5F4F841794
:10117000950750F0420F531F509307024093060209
:10118000F9016193719302C0E0E0F0E0CF01DF91DB
:10119000CF911F910F910895CF93DF939C010097FA
:1011A00009F48FC0EC0122971B821A826091080219
:1011B000709109026115710581F488819981820F0E
:1011C000931F20910602309107022817390739F53D
:1011D000D0930702C093060274C0DB0140E050E0E8
:1011E000AC17BD0708F1BB83AA83FE0121913191A1
:1011F000E20FF31FAE17BF0779F48D919C91119701
:10120000280F391F2E5F3F4F3983288312968D9107
:101210009C9113979B838A834115510571F4D09358
:101220000902C09308024DC012968D919C911397AC
:10123000AD01009711F0DC01D3CFDA011396DC93F6
:10124000CE931297FA0121913191E20FF31FCE173D
:10125000DF0769F488819981280F391F2E5F3F4F7E
:10126000FA01318320838A819B8193838283E0E02A
:10127000F0E0DB0112968D919C911397009719F085
:10128000BC01FD01F6CFAB014E5F5F4FDB018D91DD
:101290009C91840F951F2091060230910702281718
:1012A000390779F4309729F4109209021092080254
:1012B00002C0138212824250504050930702409362
:1012C0000602DF91CF9108956F927F928F929F9245
:1012D000AF92BF92CF92DF92EF92FF920F931F9344
:1012E000CF93DF938C01009729F4CB010E942F0844
:1012F0008C01BBC08EEFE82E8FEFF82EE00EF11EB2
:101300004801860E971E8E149F0408F4ACC0D701C6
:101310004D915C91119746175707B8F0453051052C
:1013200008F4A3C0CA0104978617970708F49DC064
:1013300042505040461B570BF401419351936D931B
:101340007C93CF010E94CC0890C05B01A41AB50A1F
:101350003801640E751EA0910802B0910902CC24D8
:10136000DD24E0E0F0E047C0A615B705A9F5CD9172
:10137000DC911197CE0102968A159B0568F1CE018A
:101380008A199B09029612962C91129713963C91FA
:10139000059758F0F40122833383CA19DB09D183FE
:1013A000C083D7016D937C9309C04E5F5F4F4C0F94
:1013B0005D1FF70151834083C901FC01C114D104B1
:1013C00031F0D6011396FC93EE9312974EC0F09332
:1013D0000902E093080249C08D919C911197E8178A
:1013E000F90708F4FC016D0112968C91129713967F
:1013F0009C919C01D901109709F0B6CF809106020B
:101400009091070286159705E9F4E617F707D0F4DF
:1014100020912B0130912C012115310541F42DB77C
:101420003EB78091270190912801281B390B821625
:101430009306C8F49092070280920602F701718326
:10144000608313C0CB010E942F08EC01009759F074
:10145000D7014D915C91B8010E948E00C8010E9495
:10146000CC088E0102C000E010E0C801DF91CF91EE
:101470001F910F91FF90EF90DF90CF90BF90AF90B2
:101480009F908F907F906F9008951F920F920FB64C
:101490000F9211242F933F938F939F93AF93BF93FA
:1014A0008091010290910202A0910302B091040286
:1014B000309105020196A11DB11D232F2D5F2D37FF
:1014C00020F02D570196A11DB11D20930502809398
:1014D000010290930202A0930302B0930402809150
:1014E000FD019091FE01A091FF01B09100020196D3
:1014F000A11DB11D8093FD019093FE01A093FF01FA
:10150000B0930002BF91AF919F918F913F912F9126
:101510000F900FBE0F901F901895789484B582603D
:1015200084BD84B5816084BD85B5826085BD85B587
:10153000816085BDEEE6F0E0808181608083E1E836
:10154000F0E010828081826080838081816080836E
:10155000E0E8F0E0808181608083E1EBF0E0808171
:1015600084608083E0EBF0E0808181608083EAE743
:10157000F0E08081846080838081826080838081CC
:10158000816080838081806880831092C10008958B
:10159000A1E21A2EAA1BBB1BFD010DC0AA1FBB1F77
:1015A000EE1FFF1FA217B307E407F50720F0A21BE9
:1015B000B30BE40BF50B661F771F881F991F1A9456
:1015C00069F760957095809590959B01AC01BD0180
:1015D000CF010895EE0FFF1F0590F491E02D0994BF
:1015E00010E0C6ECD0E004C0FE010E94EC0A229696
:0A15F000C83CD107C9F7F894FFCFFB
:1015FA000041004200430044004500460047002CD9
:10160A00005E00636F6C6F72203A20007061747420
:10161A0065726E203A200080000A02000000000075
:0E162A00005A04FF04F003210401044A0400E6
:00000001FF
